{
  "contractName": "SafeTX",
  "abi": [
    {
      "inputs": [],
      "stateMutability": "nonpayable",
      "type": "constructor"
    },
    {
      "inputs": [],
      "name": "walletOwner",
      "outputs": [
        {
          "internalType": "address payable",
          "name": "",
          "type": "address"
        }
      ],
      "stateMutability": "view",
      "type": "function",
      "constant": true
    },
    {
      "stateMutability": "payable",
      "type": "receive",
      "payable": true
    },
    {
      "inputs": [],
      "name": "deposit",
      "outputs": [],
      "stateMutability": "payable",
      "type": "function",
      "payable": true
    },
    {
      "inputs": [],
      "name": "getBalance",
      "outputs": [
        {
          "internalType": "uint256",
          "name": "",
          "type": "uint256"
        }
      ],
      "stateMutability": "view",
      "type": "function",
      "constant": true
    },
    {
      "inputs": [
        {
          "internalType": "address",
          "name": "_myAddy",
          "type": "address"
        }
      ],
      "name": "addKnown",
      "outputs": [],
      "stateMutability": "nonpayable",
      "type": "function"
    },
    {
      "inputs": [
        {
          "internalType": "address payable",
          "name": "_to",
          "type": "address"
        },
        {
          "internalType": "uint256",
          "name": "_amount",
          "type": "uint256"
        }
      ],
      "name": "withdraw",
      "outputs": [
        {
          "internalType": "bool",
          "name": "_status",
          "type": "bool"
        }
      ],
      "stateMutability": "payable",
      "type": "function",
      "payable": true
    }
  ],
  "bytecode": "0x608060405234801561001057600080fd5b50336000806101000a81548173ffffffffffffffffffffffffffffffffffffffff021916908373ffffffffffffffffffffffffffffffffffffffff160217905550610760806100606000396000f3fe60806040526004361061004e5760003560e01c806312065fe01461005a5780631ae879e814610085578063d0e30db0146100b0578063e556186c146100ba578063f3fef3a3146100e357610055565b3661005557005b600080fd5b34801561006657600080fd5b5061006f610113565b60405161007c91906103fa565b60405180910390f35b34801561009157600080fd5b5061009a61011b565b6040516100a79190610456565b60405180910390f35b6100b861013f565b005b3480156100c657600080fd5b506100e160048036038101906100dc91906104b4565b610141565b005b6100fd60048036038101906100f89190610539565b610229565b60405161010a9190610594565b60405180910390f35b600047905090565b60008054906101000a900473ffffffffffffffffffffffffffffffffffffffff1681565b565b60008054906101000a900473ffffffffffffffffffffffffffffffffffffffff1673ffffffffffffffffffffffffffffffffffffffff163373ffffffffffffffffffffffffffffffffffffffff16146101cf576040517f08c379a00000000000000000000000000000000000000000000000000000000081526004016101c690610632565b60405180910390fd5b60018060008373ffffffffffffffffffffffffffffffffffffffff1673ffffffffffffffffffffffffffffffffffffffff16815260200190815260200160002060006101000a81548160ff02191690831515021790555050565b60008060009054906101000a900473ffffffffffffffffffffffffffffffffffffffff1673ffffffffffffffffffffffffffffffffffffffff163373ffffffffffffffffffffffffffffffffffffffff16146102ba576040517f08c379a00000000000000000000000000000000000000000000000000000000081526004016102b190610632565b60405180910390fd5b60011515600160008573ffffffffffffffffffffffffffffffffffffffff1673ffffffffffffffffffffffffffffffffffffffff16815260200190815260200160002060009054906101000a900460ff1615151461034d576040517f08c379a00000000000000000000000000000000000000000000000000000000081526004016103449061069e565b60405180910390fd5b47821115610390576040517f08c379a00000000000000000000000000000000000000000000000000000000081526004016103879061070a565b60405180910390fd5b8273ffffffffffffffffffffffffffffffffffffffff166108fc839081150290604051600060405180830381858888f193505050501580156103d6573d6000803e3d6000fd5b506001905092915050565b6000819050919050565b6103f4816103e1565b82525050565b600060208201905061040f60008301846103eb565b92915050565b600073ffffffffffffffffffffffffffffffffffffffff82169050919050565b600061044082610415565b9050919050565b61045081610435565b82525050565b600060208201905061046b6000830184610447565b92915050565b600080fd5b600061048182610415565b9050919050565b61049181610476565b811461049c57600080fd5b50565b6000813590506104ae81610488565b92915050565b6000602082840312156104ca576104c9610471565b5b60006104d88482850161049f565b91505092915050565b6104ea81610435565b81146104f557600080fd5b50565b600081359050610507816104e1565b92915050565b610516816103e1565b811461052157600080fd5b50565b6000813590506105338161050d565b92915050565b600080604083850312156105505761054f610471565b5b600061055e858286016104f8565b925050602061056f85828601610524565b9150509250929050565b60008115159050919050565b61058e81610579565b82525050565b60006020820190506105a96000830184610585565b92915050565b600082825260208201905092915050565b7f596f7520617265206e6f7420746865206f776e6572206f66207468697320776160008201527f6c6c657400000000000000000000000000000000000000000000000000000000602082015250565b600061061c6024836105af565b9150610627826105c0565b604082019050919050565b6000602082019050818103600083015261064b8161060f565b9050919050565b7f4e6f742061207265676973746572656420616464726573730000000000000000600082015250565b60006106886018836105af565b915061069382610652565b602082019050919050565b600060208201905081810360008301526106b78161067b565b9050919050565b7f696e73756666696369656e742066756e64730000000000000000000000000000600082015250565b60006106f46012836105af565b91506106ff826106be565b602082019050919050565b60006020820190508181036000830152610723816106e7565b905091905056fea264697066735822122014abb49d5c90d1840fdc2543b18fe9601430f156eb950e39338454afb471ec7664736f6c634300080a0033",
  "immutableReferences": {},
  "source": "// SPDX-License-Identifier: GPL-3.0\npragma solidity >=0.7.0 <0.9.0;\n\ncontract SafeTX {\n\n    address payable public walletOwner;\n    mapping(address => bool) registeredAddies;\n\n    constructor() {\n        walletOwner = payable(msg.sender);\n    }\n\n    receive() external payable {}\n\n    function deposit() external payable {}\n\n    function getBalance() public view returns(uint256) {\n        return address(this).balance;\n    }\n\n    function addKnown(address _myAddy) public ownerControl {\n        registeredAddies[_myAddy] = true;\n    }\n\n    function withdraw(address payable _to, uint256 _amount) public payable ownerControl returns(bool _status) {\n        require(registeredAddies[_to] == true, \"Not a registered address\");\n        require(_amount <= address(this).balance, \"insufficient funds\");\n        _to.transfer(_amount);\n        return true;\n    }\n\n    modifier ownerControl {\n        require(msg.sender == walletOwner, \"You are not the owner of this wallet\");\n        _;\n    }\n}",
  "sourcePath": "/Users/emmettchilds-gevero/Desktop/SolidityNotes/SolMastery/SafeTX/contracts/SafeTX.sol",
  "compiler": {
    "name": "solc",
    "version": "0.8.10+commit.fc410830.Emscripten.clang"
  },
  "schemaVersion": "3.4.4",
  "updatedAt": "2022-01-11T13:38:49.203Z",
  "networkType": "ethereum",
  "devdoc": {
    "kind": "dev",
    "methods": {},
    "version": 1
  },
  "userdoc": {
    "kind": "user",
    "methods": {},
    "version": 1
  }
}